:100000000C9461000C947E000C947E000C947E0095
:100010000C947E000C947E000C947E000C947E0068
:100020000C947E000C947E000C947E000C947E0058
:100030000C947E000C947E000C947E000C947E0048
:100040000C944D010C947E000C947E000C947E0068
:100050000C947E000C947E000C947E000C947E0028
:100060000C947E000C947E00000000002400270009
:100070002A0000000000250028002B0000000000DE
:1000800023002600290004040404040404040202DA
:100090000202020203030303030301020408102007
:1000A0004080010204081020010204081020000012
:1000B0000007000201000003040600000000000029
:1000C000000011241FBECFEFD4E0DEBFCDBF11E092
:1000D000A0E0B1E0ECE5F6E002C005900D92A8309A
:1000E000B107D9F711E0A8E0B1E001C01D92A1313C
:1000F000B107E1F70E943E010C942C030C94000020
:10010000CF93DF93C0E0D0E080910001BE010E9458
:1001100038026EE170E080E090E00E94D001259608
:1001200081E0C430D80781F7C0E0D0E080910201BF
:10013000BE010E9438026EE170E080E090E00E9413
:10014000D001259681E0C430D80781F7CFEFD0E009
:1001500080910001BE010E9438028091000161E09F
:100160000E94D7026EE170E080E090E00E94D00132
:1001700025978FEFCB3FD80759F7C0E0D0E08091AB
:100180000401BE010E9438026EE170E080E090E060
:100190000E94D001259681E0C430D80781F7CFEFC7
:1001A000D0E080910201BE010E94380280910201DC
:1001B00061E00E94D7026EE170E080E090E00E9472
:1001C000D00125978FEFCB3FD80759F7C0E0D0E09B
:1001D00080910601BE010E9438026EE170E080E06D
:1001E00090E00E94D001259681E0C430D80781F7C5
:1001F000CFEFD0E080910401BE010E9438028091CF
:10020000040161E00E94D7026EE170E080E090E0BE
:100210000E94D00125978FEFCB3FD80759F7CFEF3A
:10022000D0E080910601BE010E9438028091060153
:1002300061E00E94D7026EE170E080E090E00E94F1
:10024000D00125978FEFCB3FD80759F7DF91CF919A
:1002500008958091000161E00E949802809102015E
:1002600061E00E9498028091040161E00E9498027E
:100270008091060161E00E9498020895CF93DF9378
:100280000E9495010E942901C0E0D0E00E948000F8
:100290002097E1F30E940000F9CF1F920F920FB652
:1002A0000F9211242F933F938F939F93AF93BF93FC
:1002B00080910C0190910D01A0910E01B0910F0160
:1002C000309110010196A11DB11D232F2D5F2D37F7
:1002D00020F02D570196A11DB11D20931001809390
:1002E0000C0190930D01A0930E01B0930F0180912A
:1002F000080190910901A0910A01B0910B010196AA
:10030000A11DB11D8093080190930901A0930A01DA
:10031000B0930B01BF91AF919F918F913F912F911E
:100320000F900FBE0F901F901895789484B582603F
:1003300084BD84B5816084BD85B5826085BD85B589
:10034000816085BDEEE6F0E0808181608083E1E838
:10035000F0E0108280818260808380818160808370
:10036000E0E8F0E0808181608083E1EBF0E0808173
:1003700084608083E0EBF0E0808181608083EAE745
:10038000F0E08081846080838081826080838081CE
:10039000816080838081806880831092C10008958D
:1003A000EF92FF920F931F93CF93DF937B018C010A
:1003B0003FB7F8948091080190910901A0910A013A
:1003C000B0910B0126B5A89B05C02F3F19F00196EF
:1003D000A11DB11D3FBFBA2FA92F982F8827820FCB
:1003E000911DA11DB11D52E0880F991FAA1FBB1FAF
:1003F0005A95D1F7EC0130C00E942B033FB7F89417
:100400008091080190910901A0910A01B0910B011E
:1004100026B5A89B05C02F3F19F00196A11DB11D5F
:100420003FBFBA2FA92F982F8827820F911DA11D9A
:10043000B11D32E0880F991FAA1FBB1F3A95D1F753
:100440008C1B9D0B885E9340B8F20894E108F1087C
:1004500001091109C851DC4FE114F104010511052E
:1004600059F6DF91CF911F910F91FF90EF90089572
:100470001F93CF93DF93182FEB0161E00E94980246
:10048000209709F44AC0CF3FD10509F449C0E12FB4
:10049000F0E0E255FF4F84918330C1F0843028F4BE
:1004A000813051F08230B1F50CC0863019F18730BF
:1004B00049F1843079F514C084B5806884BDC7BD26
:1004C00033C084B5806284BDC8BD2EC080918000D9
:1004D000806880938000D0938900C093880024C0F6
:1004E00080918000806280938000D0938B00C093C5
:1004F0008A001AC08091B00080688093B000C093D9
:10050000B30012C08091B00080628093B000C093AD
:10051000B4000AC0C038D1051CF4812F60E002C0CD
:10052000812F61E00E94D702DF91CF911F91089542
:10053000CF93DF93482F50E0CA0186569F4FFC01AE
:1005400034914A575F4FFA018491882369F190E012
:10055000880F991FFC01E859FF4FA591B491FC0148
:10056000EE58FF4FC591D491662351F42FB7F894FC
:100570008C91932F909589238C93888189230BC02C
:10058000623061F42FB7F8948C91932F9095892362
:100590008C938881832B88832FBF06C09FB7F894E4
:1005A0008C91832B8C939FBFDF91CF910895482F1F
:1005B00050E0CA0182559F4FFC012491CA01865622
:1005C0009F4FFC0194914A575F4FFA0134913323B6
:1005D00009F440C0222351F1233071F0243028F473
:1005E0002130A1F0223011F514C02630B1F02730AF
:1005F000C1F02430D9F404C0809180008F7703C00B
:10060000809180008F7D8093800010C084B58F77AB
:1006100002C084B58F7D84BD09C08091B0008F7702
:1006200003C08091B0008F7D8093B000E32FF0E095
:10063000EE0FFF1FEE58FF4FA591B4912FB7F8941E
:10064000662321F48C919095892302C08C91892B8B
:0C0650008C932FBF08950895F894FFCFFD
:08065C0005000300060009007F
:00000001FF
